:100000000C9434000C9451000C9451000C94510049
:100010000C9451000C9451000C9451000C9451001C
:100020000C9451000C9451000C9451000C9451000C
:100030000C9451000C9451000C9451000C945100FC
:100040000C9451000C9451000C9451000C945100EC
:100050000C9451000C9451000C9451000C945100DC
:100060000C9451000C94510011241FBECFEFD8E026
:10007000DEBFCDBF11E0A0E0B1E0ECEEF9E002C0E0
:1000800005900D92A232B107D9F721E0A2E2B1E0CA
:1000900001C01D92A332B207E1F70E94AC010C949B
:1000A000F4040C940000289A80FF02C0459A01C015
:1000B000459881FF02C0449A01C0449882FF02C063
:1000C000439A01C0439883FF02C0429A01C04298FC
:1000D00085E08A95F1F70000289885E08A95F1F788
:1000E00000000895CF93C82F82958F700E9453000F
:1000F0008C2FCF910C9453005D980E9472008FE872
:1001000091E00197F1F700C0000008955D9A0E9408
:1001100072008FE891E00197F1F700C000000895A8
:100120003D9A3C9A3B9A3A9A209A559A259A8FE1A1
:100130009EE40197F1F700C0000083E00E945300A5
:100140008FE99FE00197F1F700C0000083E00E9473
:1001500053008FE99FE00197F1F700C0000083E0B2
:100160000E9453008FE99FE00197F1F700C0000063
:1001700082E00E9453008FE99FE00197F1F700C0F1
:10018000000088E20E947C008FE99FE00197F1F770
:1001900000C0000081E00E947C008FE99FE0019791
:1001A000F1F700C0000086E00E947C008FE99FE02C
:1001B0000197F1F700C000008CE00E947C008FE9FD
:1001C0009FE00197F1F700C000008FE19EE40197E6
:1001D000F1F700C000000895882311F02CE001C061
:1001E00028E0662311F092E001C090E081E0411127
:1001F00001C080E0822B892B0C947C0081E00E945E
:100200007C008FE39FE10197F1F700C000000895A3
:1002100082E00E947C008FE39FE10197F1F700C02C
:1002200000000895613011F490EC01C090E8892B32
:100230000C947C000F931F93CF93DF938C01C0E04D
:10024000D0E0F80181918F01882341F0C83EF3E0AE
:10025000DF0721F00E9486002196F3CFDF91CF9136
:100260001F910F910895CF93DF93CDB7DEB72A97F3
:100270000FB6F894DEBF0FBECDBF4AE0BE016F5F80
:100280007F4F0E94F401CE0101960E941A012A9626
:100290000FB6F894DEBF0FBECDBFDF91CF910895AA
:1002A0000F931F93CF93DF93CDB7DEB7A8970FB609
:1002B000F894DEBF0FBECDBFFE01BF966191719174
:1002C000AF01CE0101960E9419028C01CE01019668
:1002D0000E941A01C801A8960FB6F894DEBF0FBE9F
:1002E000CDBFDF91CF911F910F910895199931C022
:1002F0002FEF87EE93E0215080409040E1F700C05F
:100300000000199926C080912201823348F485B5F6
:10031000826085BD80912201865F8093220110C09A
:100320008F3F29F08FEF80932201589809C0589A87
:1003300085B58D7F85BD1092220185B58D7F85BDE8
:100340002FEF83EC99E0215080409040E1F700C00E
:1003500000008091220108958AB181648AB9589A77
:100360005E982198299A84B5836884BD0E94900084
:100370000E94FE008AE0D82E96E0E92EF12CC0E122
:10038000D1E000E011E060E080E00E9412010E94F4
:10039000760187BD0E9476018F3F39F41F930F933A
:1003A0000E9450010F900F90EECF87B56D2D0E94E7
:1003B000E8019701281B3109C9019F932F93DF930F
:1003C000CF930E9450010F900F900F900F90DBCFB2
:1003D000991B79E004C0991F961708F0961B881F97
:1003E0007A95C9F780950895BB274A3031F499234F
:1003F00022F4BDE2909581959F4F0C940002BB279B
:10040000FB015527AA27880F991FAA1FA41710F0D0
:10041000A41B83955051B9F7A05DAA3308F0A95DDC
:10042000A193009779F7B111B1931192CB010C947C
:100430001D04AEE0B0E0EFE1F2E00C94CB048C01DF
:1004400086E08C831A8309838FEF9FE79E838D83D9
:10045000CE0101960E943502EF81F885E00FF11F71
:1004600010822E96E4E00C94E704ACE0B0E0EBE3FD
:10047000F2E00C94BD047C016B018A01FC0117823F
:100480001682838181FFBDC1CE0101964C01F70127
:100490009381F60193FD859193FF81916F018823EC
:1004A00009F4ABC1853239F493FD859193FF8191B5
:1004B0006F01853229F4B70190E00E942D04E7CF47
:1004C000512C312C20E02032A0F48B3269F030F432
:1004D000803259F0833269F420612CC08D3239F0BA
:1004E000803339F4216026C02260246023C0286054
:1004F00021C027FD27C030ED380F3A3078F426FFB1
:1005000006C0FAE05F9E300D1124532E13C08AE01E
:10051000389E300D1124332E20620CC08E3221F40F
:1005200026FD6BC1206406C08C3611F4206802C021
:10053000883641F4F60193FD859193FF81916F0117
:100540008111C1CF982F9F7D9554933028F40C5F73
:100550001F4FFFE3F9830DC0833631F0833771F00D
:10056000833509F05BC022C0F801808189830E5F6A
:100570001F4F44244394512C540115C03801F2E01C
:100580006F0E711CF801A080B18026FF03C0652D9D
:1005900070E002C06FEF7FEFC5012C870E9412044C
:1005A0002C0183012C852F77222E17C03801F2E011
:1005B0006F0E711CF801A080B18026FF03C0652D6D
:1005C00070E002C06FEF7FEFC5012C870E94070427
:1005D0002C012C852068222E830123FC1BC0832D37
:1005E00090E048165906B0F4B70180E290E00E940E
:1005F0002D043A94F4CFF50127FC859127FE8191D3
:100600005F01B70190E00E942D0431103A94F1E0AF
:100610004F1A51084114510471F7E5C0843611F0A6
:10062000893639F5F80127FF07C060817181828121
:1006300093810C5F1F4F08C060817181882777FD0F
:100640008095982F0E5F1F4F2F76B22E97FF09C00F
:1006500090958095709561957F4F8F4F9F4F206843
:10066000B22E2AE030E0A4010E945F04A82EA81850
:1006700044C0853729F42F7EB22E2AE030E025C011
:10068000F22FF97FBF2E8F36C1F018F4883579F03C
:10069000B4C0803719F0883721F0AFC02F2F206108
:1006A000B22EB4FE0DC08B2D8460B82E09C024FF7D
:1006B0000AC09F2F9660B92E06C028E030E005C022
:1006C00020E130E002C020E132E0F801B7FE07C0CF
:1006D00060817181828193810C5F1F4F06C06081B0
:1006E000718180E090E00E5F1F4FA4010E945F04C3
:1006F000A82EA818FB2DFF77BF2EB6FE0BC02B2D02
:100700002E7FA51450F4B4FE0AC0B2FC08C02B2DF5
:100710002E7E05C07A2C2B2D03C07A2C01C0752C9F
:1007200024FF0DC0FE01EA0DF11D8081803311F41C
:10073000297E09C022FF06C07394739404C0822FDF
:10074000867809F0739423FD13C020FF06C05A2C4D
:10075000731418F4530C5718732C731468F4B701FE
:1007600080E290E02C870E942D0473942C85F5CFB5
:10077000731410F4371801C0312C24FF12C0B701D4
:1007800080E390E02C870E942D042C8522FF17C067
:1007900021FF03C088E590E002C088E790E0B70140
:1007A0000CC0822F867859F021FD02C080E201C082
:1007B0008BE227FD8DE2B70190E00E942D04A51485
:1007C00038F4B70180E390E00E942D045A94F7CFEB
:1007D000AA94F401EA0DF11D8081B70190E00E9416
:1007E0002D04A110F5CF332009F451CEB70180E2DA
:1007F00090E00E942D043A94F6CFF701868197810C
:1008000002C08FEF9FEF2C96E2E10C94D904FC011B
:100810000590615070400110D8F7809590958E0F2B
:100820009F1F0895FC016150704001900110D8F79E
:10083000809590958E0F9F1F0895DC01FC01672F16
:1008400071917723E1F7329704C07C916D937083A7
:100850006291AE17BF07C8F308950F931F93CF930C
:10086000DF93182F092FEB018B8181FD03C08FEFE0
:100870009FEF20C082FF10C04E815F812C813D819F
:10088000421753077CF4E881F9819F012F5F3F4FA6
:1008900039832883108306C0E885F985812F09955F
:1008A000892B29F72E813F812F5F3F4F3F832E8376
:1008B000812F902FDF91CF911F910F910895FA0111
:1008C000AA27283051F1203181F1E8946F936E7F8F
:1008D0006E5F7F4F8F4F9F4FAF4FB1E03ED0B4E080
:1008E0003CD0670F781F891F9A1FA11D680F791FC1
:1008F0008A1F911DA11D6A0F711D811D911DA11DD2
:1009000020D009F468943F912AE0269F11243019E1
:10091000305D3193DEF6CF010895462F4770405D7C
:100920004193B3E00FD0C9F7F6CF462F4F70405D2B
:100930004A3318F0495D31FD4052419302D0A9F786
:10094000EACFB4E0A6959795879577956795BA9580
:10095000C9F700976105710508959B01AC010A2E46
:1009600006945795479537952795BA95C9F7620F1D
:10097000731F841F951FA01D08952F923F924F92C1
:100980005F926F927F928F929F92AF92BF92CF921F
:10099000DF92EF92FF920F931F93CF93DF93CDB728
:1009A000DEB7CA1BDB0B0FB6F894DEBF0FBECDBFA0
:1009B00009942A88398848885F846E847D848C8471
:1009C0009B84AA84B984C884DF80EE80FD800C817A
:1009D0001B81AA81B981CE0FD11D0FB6F894DEBF5D
:0C09E0000FBECDBFED010895F894FFCFCD
:1009EC0020202020204A415A444120202020200051
:1009FC00444F205354415254553A20256420202012
:020A0C000000E8
:00000001FF
